:100000000C944D010C9475010C9475010C947501C0
:100010000C9475010C9475010C9475010C94750188
:100020000C9475010C9475010C9475010C94750178
:100030000C9475010C9475010C949E010C9475013F
:100040000C9475010C9475010C9475010C94750158
:100050000C9475010C9475010C9475010C94750148
:100060000C9475010C94F2050C9475010C943A06ED
:100070000C9475010C9475010C9475010C94750128
:100080000C9475010C9475010C9475010C94750118
:100090000C9475010C9475010C9475010C94750108
:1000A0000C9475010C9475010C9475010C947501F8
:1000B0000C9475010C9475010C9475010C947501E8
:1000C0000C9475010C9475010C9475010C947501D8
:1000D0000C9475010C9475010C9475010C947501C8
:1000E0000C9475010C9475010C9475010C947501B8
:1000F0000C9475010C9475010C9475010C947501A8
:100100000C94E3060C947F010C9475010C9475011A
:100110000C9475010C9475010C9475010C94750187
:100120000C9475010C9475010C9475010C94750177
:100130000C9475010C9475010C9475010C94750167
:100140000C9475010C9475010C9475010C94750157
:100150000C9475010C9475010C9475010C94750147
:100160000C9415060C9475010C9444060C947501BE
:100170000C9475010C9475016E616E00696E6600D9
:1001800000407A10F35A00A0724E18090010A5D44E
:10019000E80000E87648170000E40B54020000CAAB
:1001A0009A3B000000E1F5050000809698000000F1
:1001B00040420F000000A086010000001027000050
:1001C0000000E803000000006400000000000A00D6
:1001D000000000000100000000002C76D888DC67D9
:1001E0004F0823DFC1DFAE59E1B1B796E5E3E45331
:1001F000C63AE651997696E8E6C28426EB898C9B4E
:1002000062ED407C6FFCEFBC9C9F40F2BAA56FA5ED
:10021000F490055A2AF75C936B6CF9676DC11BFC6F
:10022000E0E40D47FEF520E6B500D0ED902E03008A
:10023000943577050080841E080000204E0A0000D7
:1002400000C80C333333330F986E12831141EF8D96
:100250002114893BE65516CFFEE6DB18D1844B38D6
:100260001BF77C1D901DA4BBE424203284725E2207
:100270008100C9F124ECA1E53D27E6800882F4A4C1
:1002800023C62C94ABC281CAF7C4709800C800E0A2
:1002900088826F0877087308190911241FBECFEFF1
:1002A000CDBFDFE2DEBF10E2A0E0B0E2E2EEFDE1B2
:1002B00002C005900D92AE39B107D9F721E2AEE93F
:1002C000B0E201C01D92A336B207E1F711E0CBE422
:1002D000D1E004C02197FE010E941C0DC934D10752
:1002E000C9F70E947D080C94E40E0C940000E0E62F
:1002F000F6E084E08187838788E1828B08951F92EE
:100300000F920FB60F9211248F9310929E208AE2C3
:10031000809326088F910F900FBE0F901F90189515
:10032000E0E0F8E082E0848386E08083118281E06F
:10033000868380E880A38AE286A308951F920F92A5
:100340000FB60F9211248F9381E080939E208F919E
:100350000F900FBE0F901F901895E0EDF0E0DC01BC
:10036000ED93FC93119720E82083ED91FC9181E0BF
:10037000808308950895DC01ED91FC91119720E8A8
:100380002083ED91FC9181E080830895DC01ED9163
:10039000FC9163830895DC01ED91FC9163830895E2
:1003A000DC01FB019191BF01992329F0ED91FC91B2
:1003B00011979383F6CF0895DC01ED91FC9125818F
:1003C000848190E0922B0895CF93DF93EB010E94FC
:1003D000DC019F938F9383E490E29F938F93DF934D
:1003E000CF930E94640E0F900F900F900F900F907C
:1003F0000F90DF91CF910895EF92FF920F931F938B
:10040000CF93DF93CDB7DEB72597CDBFDEBF7B019E
:100410000E94DC019F938F9383E490E29F938F93DC
:100420008E010F5F1F4F1F930F930E94640EF80100
:10043000D7019E012B5F3F4F0F900F900F900F90B1
:100440000F900F9081E041919D91491380E0E21758
:10045000F307C9F72596CDBFDEBFDF91CF911F917E
:100460000F91FF90EF900895CF93DF93EA01462F0D
:10047000FB013E2F341B321740F43191DC016D91AA
:100480007C91DB0113963C93F4CF0E94DC01FE01CA
:10049000349641E02291022E000C330B2154310995
:1004A000BC016F7077272617370709F040E024E07A
:1004B000969587952A95E1F7CE17DF0759F7842F90
:1004C000DF91CF9108950F931F93CF93DF93EC01AA
:1004D0008B01F80161918F01662341F0E881F98178
:1004E0000190F081E02DCE010995F3CF81E0DF91FD
:1004F000CF911F910F910895FC018281811107C056
:100500008091A10885FFFCCF6093A0080895809199
:10051000680680FDFCCF81E08093650688E08093CB
:10052000A409FFE1FA95F1F788E18093A4096093AB
:10053000A0090895FC0183E590E2808391836283A2
:10054000672BA9F488E08093410684E080934206FB
:100550008BEE90E28483958381ED90E28783908790
:1005600088E18093A40880E18093A30814C080ED03
:1005700090E28483958386EB90E28783908788E17D
:100580008093A40984E18093A30981E080936606A7
:1005900082E0809366068AE1838316820480F58177
:1005A000E02D1082089521153105A2EC4A07A1E043
:1005B0005A07F1F1A8F42038F4E83F07FEE14F07AD
:1005C000510569F12115304449415140D1F570E0A0
:1005D000FB01E25FFF4DE081DB01A155BF4D30C063
:1005E0002115B8E43B07B8EE4B07B1E05B0771F0AB
:1005F000211530484243524021F570E0FB01E050A4
:10060000F04EE081DB01AF55BF4D1AC070E0FB0139
:10061000E65DFF4DE081DB01AD5DBF4D11C070E0D7
:10062000FB01E45EFF4DE081DB01AB5EBF4D08C026
:1006300070E0FB01E95FFF4DE081DB01A855BF4D94
:100640007C91DC0112968C91811105C0E093A60883
:100650007093A7080895E093A6097093A7090895D9
:100660000895CF93DF93EC01E881F9810280F38153
:10067000E02D0995E881F9810280F381E02D69E69A
:1006800070E2CE01DF91CF910994DC01ED91FC91F4
:100690000280F381E02D69E670E209948F929F92C7
:1006A000AF92BF92CF92DF92EF92FF920F931F9380
:1006B000CF93DF93DC010D911C914F3FBFEF5B07A0
:1006C0006B077B0709F44BC16A017B01EC01CB018D
:1006D000BA0120E03AEC4AE95BE30E94BE0CB22E7C
:1006E000832E942EA52E60E3620FD801ED91FC912C
:1006F000CE0109952B2D382D492D5A2D60E07AEC2D
:100700008AE99BE30E949A0CC61AD70AE80AF90AFA
:10071000C701B60120E031EE45EF55E00E94BE0C66
:10072000122FA32EB42E052F60E3620FE881F9810A
:100730000190F081E02DCE010995212F3A2D4B2D0E
:10074000502F60E071EE85EF95E00E949A0CC61A7A
:10075000D70AE80AF90AC701B60120E836E948E9EC
:1007600050E00E94BE0C122FA32EB42E052F60E382
:10077000620FE881F9810190F081E02DCE010995A9
:10078000212F3A2D4B2D502F60E876E988E990E033
:100790000E949A0CC61AD70AE80AF90AC701B601DC
:1007A00020E432E44FE050E00E94BE0C122FA32E52
:1007B000B42E052F60E3620FE881F9810190F0818A
:1007C000E02DCE010995212F3A2D4B2D502F60E4BD
:1007D00072E48FE090E00E949A0CC61AD70AE80AE9
:1007E000F90AC701B60120EA36E841E050E00E946C
:1007F000BE0C122FA32EB42E052F60E3620FE881EA
:10080000F9810190F081E02DCE010995212F3A2D3B
:100810004B2D502F60EA76E881E090E00E949A0C20
:10082000C61AD70AE80AF90AC701B60120E137E279
:1008300040E050E00E94BE0C122FA32EB42E052FD4
:1008400060E3620FE881F9810190F081E02DCE0133
:100850000995A0E1B7E2212F3A2D4B2D502F0E9490
:10086000E00CC61AD70AE80AF90AC701B60128EE51
:1008700033E040E050E00E94BE0C122FA32EB42EB5
:10088000052F60E3620FE881F9810190F081E02D8E
:10089000CE010995A8EEB3E0212F3A2D4B2D502F14
:1008A0000E94E00CC61AD70AE80AF90AC701B60185
:1008B00024E630E040E050E00E94BE0C122FA32E50
:1008C000B42E052F60E3620FE881F9810190F08179
:1008D000E02DCE010995A4E6B0E0212F3A2D4B2D55
:1008E000502F0E94E00CC61AD70AE80AF90AC7017D
:1008F000B6012AE030E040E050E00E94BE0C122F2A
:10090000A32EB42E052F60E3620FE881F9810190D8
:10091000F081E02DCE010995AAE0B0E0212F3A2D1B
:100920004B2D502F0E94E00CA7019601261B370B80
:10093000480B590B60E3620FE881F9810190F08167
:10094000E02DCE01DF91CF911F910F91FF90EF909D
:10095000DF90CF90BF90AF909F908F900994D80177
:100960001296ED91FC91139768E470E2DF91CF91BC
:100970001F910F91FF90EF90DF90CF90BF90AF90BD
:100980009F908F9009940895CF92DF92EF92FF92FB
:100990000F931F93CF93DF937C01062FD42EC22E8B
:1009A000C8E0D0E010E8D701ED91FC91802F8123C1
:1009B0000190F081E02D811102C06D2D01C06C2DE0
:1009C000C70109951695219771F7DF91CF911F9176
:1009D0000F91FF90EF90DF90CF9008952F923F926C
:1009E0004F925F926F927F928F929F92AF92BF923F
:1009F000CF92DF92EF92FF920F931F93CF93DF93EB
:100A0000CDB7DEB70D891E89EF89F88D6E0189E1BA
:100A1000C80ED11C4AE0442E512C6081653241F051
:100A2000662309F47DC03F019FEF691A790A10C05F
:100A30003F01B2E06B0E711C61816436E1F06837F2
:100A400099F0633629F4F6016081C60102966C01C3
:100A5000D801ED91FC910190F081E02DC80109953C
:100A600056016501F301D9CF20E1822E912C30E1AE
:100A7000E32EF12C07C08AE0882E912C90E1E92E1C
:100A800097E2F92E5601B2E0AB0EB11CF601C08020
:100A9000D180643651F5D7FE0CC0D194C194D108F1
:100AA000D801ED91FC910190F081E02D6DE2C8013B
:100AB0000995CE14DF04C8F4C701B2010E94AA0C44
:100AC0007B0162307105A8F7C6010E94AA0CDB0108
:100AD000AE5CBF4DF80180819181FC0120813181A4
:100AE0006C91C801F9010995BCCFC601B7010E94FC
:100AF000AA0C1C01DB01AE5CBF4DF8018081918125
:100B0000FC01208131816C91C801F90109956101D5
:100B1000C701B4010E94AA0C7B01672B31F7A1CF5A
:100B200080E0DF91CF911F910F91FF90EF90DF90C8
:100B3000CF90BF90AF909F908F907F906F905F907D
:100B40004F903F902F9008957F936F935F934F93B3
:100B50002CE430E23F932F939F938F930E94EE04F7
:100B60008DB79EB708968DBF9EBF0895FC01A481E6
:100B7000B5819C918681981799F086818F5F8683D5
:100B800096818381981301C0168286810780F08543
:100B9000E02DE80FF11D8081FB01808381E0089545
:100BA00080E00895DC011496ED91FC911597208169
:100BB00016962C9308950F931F93CF93DF931F9254
:100BC000CDB7DEB78C01BE016F5F7F4FC8010E94B9
:100BD000B6058823C1F389810F90DF91CF911F91D2
:100BE0000F9108951F920F920FB60F9211248F93B9
:100BF000EF93FF938091EB208F5F8093EB208091A8
:100C0000EB208A3111F41092EB20E091EB20F0E020
:100C10008091A008EF52FF4D8083FF91EF918F915B
:100C20000F900FBE0F901F9018951F920F920FB646
:100C30000F9211248F939F93EF93FF939091A009AC
:100C40008091D0208F5F8093D0208091D0208A31F6
:100C500011F41092D020E091D020F0E0EA54FF4D42
:100C60009083FF91EF919F918F910F900FBE0F9006
:100C70001F9018951F920F920FB60F9211240F908C
:100C80000FBE0F901F9018951F920F920FB60F92E4
:100C900011248F9381E08093660680E88093A109F8
:100CA0008F910F900FBE0F901F9018952BEC2093F3
:100CB00052002DE0209350002091510023FFFCCFE3
:100CC0002091510022FFFCCF9C01215031092F308F
:100CD000310588F4806C809355008DE1809350003D
:100CE0008091510084FFFCCF88ED84BF84E0809325
:100CF00040008CE106C088ED84BF83E08093400013
:100D00008CE08093500008958130910541F082304D
:100D10009105A9F0892B31F5CB010C94560685E09D
:100D2000809350008091510080FFFCCF8091510052
:100D300082FFFCCF88ED84BF10924000089587E0C9
:100D4000809350008091510081FFFCCF8091510031
:100D500082FFFCCF88ED84BF81E08093400086E075
:100D600080935000089520E1209366069093C30974
:100D70009091C20997FFFCCF8093C3098091C2096B
:100D800087FFFCCF80E180936506089520E12093E2
:100D900066069093C3099091C20997FFFCCF2091FA
:100DA000C30930E0322F22278093C3098091C20902
:100DB00087FFFCCF8091C30990E190936506A9015C
:100DC000482BCA01089578941F920F920FB60F9284
:100DD0001124EF92FF920F931F932F933F934F9302
:100DE0005F936F937F938F939F93AF93BF93CF93B3
:100DF000DF93EF93FF938FE180937206D0E1C2E21D
:100E000082E0E82E11E0D09366061092C30980912B
:100E1000C20987FFFCCFD09365068091C30987FF85
:100E20007BC00091F5200130F9F020F0023009F488
:100E30004DC067C01093F82080E090EB0E94C6067A
:100E40008093622193E0980F9093F720E091F9202E
:100E5000CE9FF0011124E550FF4D9081911151C0BA
:100E60001093F5208183CFCF80E090EB0E94C606DF
:100E70009091F8202091F7209217D8F420916221C8
:100E8000282720936221913220F09F5F9093F820D1
:100E9000BACFE091F920CE9FF00111243196E90FED
:100EA000F11DE550FF4D8083923079F72F3F49F5D2
:100EB000ECCF8091F920C89FF0011124E550FF4D3F
:100EC000E082F82EF026F092F9201BC0E091F82085
:100ED0008091F720E81758F481E08E0F8093F82076
:100EE000F0E0E15CFE4D808190E0986B12C01092C2
:100EF000F62088E892E80E94B3068AEA98EB0E94FE
:100F0000B3061092F52081E89AEC0E94B30683E8BC
:100F10009AEC0E94B30677CF8AE180937206FF9124
:100F2000EF91DF91CF91BF91AF919F918F917F9181
:100F30006F915F914F913F912F911F910F91FF9072
:100F4000EF900F900FBE0F901F901895CF93DF93E7
:100F50008091F520811138C0DFE1D093720680E0E6
:100F600090E00E94C606CAE1C093720690FF02C0DC
:100F700088EC05C080913120882321F08150809336
:100F8000312022C08091F6208130F1F4D093720696
:100F900088E092E80E94B306809141218A5F8093A5
:100FA000F7201092F82082E08093F5208AEA98EBEF
:100FB0000E94B3068AEA98EB0E94B30688E292E8A0
:100FC0000E94B306C0937206DF91CF91089590916D
:100FD000F62091110DC06093412180934221862714
:100FE00080958093432181E08093F62080E80895E6
:100FF00083E00895CF93DF93D62F8F3190F49091B3
:10100000F620911110C0BA01C82F482F50E084E497
:1010100091E20E94140E6C2F8D2FDF91CF910C94D2
:10102000E70782E001C083E0DF91CF910895A5EF4B
:10103000B0E215969C91159782E2989FF0011124D9
:10104000E550FF4D108281E0892715968C93089515
:10105000CF93DF9380E18093650690E890936106DB
:1010600090E29093610690E490936206809361060B
:101070008093650683E58093C0098DE280933F21CC
:1010800084ED809340211092F9201092FA20CAE753
:10109000D2E0FE01859194910E94B306229682E0EF
:1010A000C239D807B1F788E890EC0E94B30681E016
:1010B0008093690684E080936A0680E090E00E9455
:1010C000C60681E89AEC0E94B30683E89AEC0E9477
:1010D000B3068AE180937206DF91CF9108958FE97C
:1010E00090E20C94AD018FE990E20C94BA0160E0BB
:1010F00070E08CEE90E20C949A02CF93DF93CDB720
:10110000DEB72797CDBFDEBF87E0E6E9F0E2DE017C
:10111000119601900D928A95E1F780E090E00E948F
:101120005606789420E030E449E151E064E08CEE2A
:1011300090E20E94D30267E570E28CEE90E20E949A
:1011400063020E94280881E08093610684E191E0B7
:101150002FEF3FE945E0215030404040E1F700C02B
:10116000000090936706815099F76CE670E28CEE70
:1011700090E20E946302E12CF12C82E2D82ECC2472
:10118000C394E091FA20DE9EF0011124E550FF4D5A
:101190008081823061F5C092670662E870E28CEE71
:1011A00090E20E9463020091FA20D09E80011124F7
:1011B00001501F4DB12CE091FA20DE9EF001112468
:1011C000E550FF4D8181B81650F4F801EB0DF11D8B
:1011D00060818CEE90E20E947C02B394ECCF6EE8CA
:1011E00070E28CEE90E20E9463020E9417088FEF7B
:1011F000E81AF80A98EBE9169BE0F90689F462E927
:1012000070E28CEE90E20E946302C0926706AE012B
:101210004F5F5F4F60E087E00E94FA07E12CF12CFE
:101220000E94A6078CEC91E00197F1F700C0000046
:10123000A8CF8CEE90E20C943003A0E1B0E0E3E2A2
:10124000F9E00C94EB0C7C011B016A01FC01168295
:101250001782838181FF44C39E012F5F3F4F390175
:10126000F7019381F10193FD859193FF81911F0116
:10127000882309F431C3853239F493FD859193FFB6
:1012800081911F01853239F4B70190E00E94280E48
:1012900056016501E5CF10E0512C912CFFE1F915C5
:1012A000D8F08B3279F038F4803279F08332A1F4BF
:1012B000F92DF0612EC08D3261F0803369F4292D53
:1012C00021602DC0392D3260932E892D8460982E97
:1012D0002AC0E92DE86015C097FC2DC020ED280F2D
:1012E0002A3088F496FE06C03AE0139F200D1124A0
:1012F000122F19C08AE0589E200D1124522EE92D7C
:10130000E0629E2E10C08E3231F496FCE5C2F92DBB
:10131000F0649F2E08C08C3621F4292D2068922E6F
:1013200002C0883641F4F10193FD859193FF8191CC
:101330001F018111B3CF9BEB980F933020F4992DAF
:101340009061805E07C09BE9980F933008F066C1FA
:10135000992D9F7E96FF16E09F73992E853619F47E
:101360009064992E08C0863621F4392F3068932E68
:1013700002C01111115097FE07C01C3350F44424D1
:101380004394410E27E00BC0183038F027E017E0F7
:1013900005C027E09CE3492E02C0212F412C5601B5
:1013A00084E0A80EB11CF601608171818281938175
:1013B000042DA3010E94310D6C01F981FC87F0FF1F
:1013C00002C0F3FF06C091FC06C092FE06C000E218
:1013D00005C00DE203C00BE201C000E08C858C70FB
:1013E00019F001115AC29BC297FE10C04C0CFC852B
:1013F000F4FF04C08A81813309F44A94141474F50B
:1014000028E0241578F588E0482E2CC096FC2AC0E8
:10141000812F90E08C159D059CF03CEFC3163FEFAB
:10142000D30674F0892D8068982E0AC0E2E0F0E0BF
:10143000EC0FFD1FE10FF11D8081803319F4115075
:101440001111F4CF97FE0EC044244394410E812F16
:1014500090E0C816D9062CF41C1904C04424439407
:1014600001C010E097FE06C01C141D0434F4C60130
:10147000019605C085E090E002C081E090E0011196
:101480000196112331F0212F30E02F5F3F4F820F63
:10149000931F252D30E08217930714F4581A01C0CA
:1014A000512C892D897049F4552039F0B70180E21B
:1014B00090E00E94280E5A94F7CF002329F0B7013C
:1014C000802F90E00E94280E93FC09C0552039F02F
:1014D000B70180E390E00E94280E5A94F7CF97FE60
:1014E0004CC04601D7FE02C0812C912CC601881940
:1014F0009909F301E80FF91FED87FE87960124197A
:1015000031092F87388B012F10E0119501951109B2
:101510003FEF8316930629F4B7018EE290E00E9414
:10152000280EC814D9044CF08F8598898815990520
:1015300024F4ED85FE85818101C080E3F1E08F1AFE
:1015400091082D853E852F5F3F4F2D873E87801662
:1015500091062CF0B70190E00E94280ED9CFC81454
:10156000D90441F49A81963320F4953319F43C85DB
:1015700034FF81E3B70190E04EC08A81813319F0D6
:101580009C859F7E9C87B70190E00E94280E1111D8
:1015900005C094FC18C085E690E017C0B7018EE244
:1015A00090E00E94280E1E5F82E001E0080FF30128
:1015B000E80FF11D8081B70190E00E94280E802F76
:1015C0000113F3CFE6CF85E490E0B7010E94280E27
:1015D000D7FC06C0C114D10441F4EC85E4FF05C07A
:1015E000D194C194D1088DE201C08BE2B70190E0A3
:1015F0000E94280E80E32AE0C216D1042CF08F5FEF
:10160000FAE0CF1AD108F7CFB70190E00E94280E78
:10161000B701C601C0960E94280E54C1833631F02E
:10162000833779F0833509F056C020C0560132E087
:10163000A30EB11CF6018081898301E010E06301F3
:1016400012C05601F2E0AF0EB11CF601C080D1808D
:1016500096FE03C0612F70E002C06FEF7FEFC601FE
:101660000E941D0E8C01F92DFF7714C0560122E057
:10167000A20EB11CF601C080D18096FE03C0612F7E
:1016800070E002C06FEF7FEFC6010E94090E8C016F
:10169000F92DF0689F2EF3FD1AC0852D90E00817F4
:1016A0001907A8F4B70180E290E00E94280E5A942E
:1016B000F4CFF60197FC859197FE81916F01B701F8
:1016C00090E00E94280E51105A9401501109011502
:1016D000110579F7F7C0843611F0893661F55601A6
:1016E00097FE09C024E0A20EB11CF6016081718151
:1016F000828193810AC0F2E0AF0EB11CF6016081D5
:101700007181072E000C880B990BF92DFF769F2E07
:1017100097FF09C090958095709561957F4F8F4F89
:101720009F4FF0689F2E2AE030E0A3010E94860EB2
:10173000C82EC6183FC0092D853721F40F7E2AE038
:1017400030E01DC0097F8F3691F018F4883559F0CC
:10175000C3C0803719F0883711F0BEC0006104FFA4
:1017600009C0046007C094FE08C0066006C028E0F7
:1017700030E005C020E130E002C020E132E0560157
:1017800007FF09C084E0A80EB11CF60160817181D9
:101790008281938108C0F2E0AF0EB11CF601608136
:1017A000718180E090E0A3010E94860EC82EC618C9
:1017B0000F77902E96FE0BC0092D0E7FC11650F4A8
:1017C00094FE0AC092FC08C0092D0E7E05C0DC2CD8
:1017D000092D03C0DC2C01C0D12E04FF0DC0FE0179
:1017E000EC0DF11D8081803311F4097E09C002FFE8
:1017F00006C0D394D39404C0802F867809F0D39484
:1018000003FD11C000FF06C01C2DD51480F4150D7A
:101810001D190DC0D51458F4B70180E290E00E9464
:10182000280ED394F7CFD51410F45D1801C0512CB5
:1018300004FF10C0B70180E390E00E94280E02FF71
:1018400017C001FD03C088E790E002C088E590E082
:10185000B7010CC0802F867859F001FF02C08BE2DF
:1018600001C080E207FD8DE2B70190E00E94280EE2
:10187000C11638F4B70180E390E00E94280E1150A1
:10188000F7CFCA94F301EC0DF11D8081B70190E010
:101890000E94280EC110F5CF15C0F4E0F51560F5D3
:1018A00084E0581A93FE1FC0011127C02C8523FF26
:1018B0002AC008E711E0392D3071932EF801849188
:1018C000811124C0552009F4E4CCB70180E290E0F6
:1018D0000E94280E5A94F6CFF7018681978126C080
:1018E0008FEF9FEF23C0B70180E290E00E94280EA7
:1018F0005A945110F8CFD8CF512CB701802F90E0D7
:101900000E94280ED3CF0CE711E0D5CF9110805262
:10191000B70190E00E94280E0F5F1F4FCFCF23E04A
:10192000251510F483E0BDCF512CC0CF6096E2E1C5
:101930000C94040DDB018F939F930E94E00CBF91E8
:10194000AF91A29F800D911DA39F900DB29F900D0E
:1019500011240895AA1BBB1B51E107C0AA1FBB1F7E
:10196000A617B70710F0A61BB70B881F991F5A952B
:10197000A9F780959095BC01CD010895A1E21A2E9A
:10198000AA1BBB1BFD010DC0AA1FBB1FEE1FFF1F23
:10199000A217B307E407F50720F0A21BB30BE40B73
:1019A000F50B661F771F881F991F1A9469F76095BA
:1019B0007095809590959B01AC01BD01CF01089574
:1019C0000E94220DA59F900DB49F900DA49F800DA5
:1019D000911D112408952F923F924F925F926F9222
:1019E0007F928F929F92AF92BF92CF92DF92EF92AF
:1019F000FF920F931F93CF93DF93CDB7DEB7CA1B30
:101A0000DB0BCDBFDEBF09942A88398848885F8404
:101A10006E847D848C849B84AA84B984C884DF808E
:101A2000EE80FD800C811B81AA81B981CE0FD11D72
:101A3000CDBFDEBFED010895EE0FFF1F0590F491BD
:101A4000E02D0994A29FB001B39FC001A39F700D28
:101A5000811D1124911DB29F700D811D1124911DB6
:101A60000895283008F027E03327DA01990F311D57
:101A700087FD916000966105710539F432602E5F33
:101A80003D9330E32A95E1F708959F3F30F0803889
:101A90007105610509F03C5F3C5F3D93913008F0B2
:101AA0008068911DDF93CF931F930F93FF92EF9266
:101AB000192F987F9695E92F96959695E90FFF2710
:101AC000E652FE4F99273327EE24FF24A701E701B2
:101AD00005900894079428F4360FE71EF81E491F56
:101AE000511D660F771F881F991F0694A1F7059057
:101AF000079428F4E70EF81E491F561FC11D770FE3
:101B0000881F991F661F0694A1F70590079428F473
:101B1000F80E491F561FC71FD11D880F991F661F3A
:101B2000771F0694A1F70590079420F4490F561FDC
:101B3000C71FD81F990F661F771F881F0694A9F724
:101B400084911095177041F0D695C7955795479594
:101B5000F794E7941A95C1F7E0E8F1E068941590DE
:101B6000159135916591959105907FE27395E118F6
:101B7000F10A430B560BC90BD009C0F7E10CF11E5B
:101B8000431F561FC91FD01D7EF4703311F48A9570
:101B9000E6CFE894015030F0080F0AF4002702174E
:101BA00008F4202F2395022F7A3328F079E37D93D0
:101BB0002A95E9F710C07D932A9589F606949795A2
:101BC0006795379517951794E118F10A430B560B53
:101BD000C90BD00998F023957E9173957A3308F05C
:101BE00070E37C932013B8F77E9170617D9330F0A1
:101BF000839571E37D9370E32A95E1F71124EF90CB
:101C0000FF900F911F91CF91DF91992787FD9095BC
:101C10000895FC010590615070400110D8F780953F
:101C200090958E0F9F1F0895FB01DC0102C001906B
:101C30000D9241505040D8F70895FC01615070401A
:101C400001900110D8F7809590958E0F9F1F0895F1
:101C50000F931F93CF93DF93FB01238121FD03C0DB
:101C60008FEF9FEF2CC022FF16C046815781248141
:101C700035814217530744F4A081B1819D012F5F44
:101C80003F4F208331838C93268137812F5F3F4FD5
:101C90002683378314C08B01EC01FB010084F1859E
:101CA000E02D0995892BE1F6D80116968D919C912E
:101CB0001797019616968D939C931797CE01DF91F7
:101CC000CF911F910F910895AEE0B0E0EAE6FEE0FB
:101CD0000C94F90C0D891E8986E08C8309831A8384
:101CE0008FEF9FE78D839E83AE01475E5F4F6F89C5
:101CF000788DCE0101960E941D09EF81F885E00FD5
:101D0000F11F10822E96E4E00C94120DFA01AA271E
:101D1000283051F1203181F1E8946F936E7F6E5F2E
:101D20007F4F8F4F9F4FAF4FB1E03ED0B4E03CD0DC
:101D3000670F781F891F9A1FA11D680F791F8A1FBF
:101D4000911DA11D6A0F711D811D911DA11D20D026
:101D500009F468943F912AE0269F11243019305DE0
:101D60003193DEF6CF010895462F4770405D4193D1
:101D7000B3E00FD0C9F7F6CF462F4F70405D4A331E
:101D800018F0495D31FD4052419302D0A9F7EACFE6
:101D9000B4E0A6959795879577956795BA95C9F715
:101DA00000976105710508959B01AC010A2E069408
:101DB0005795479537952795BA95C9F7620F731FC1
:101DC000841F951FA01D089511E0CBE4D1E004C04D
:101DD000FE010E941C0D2196CD34D107C9F7F8945D
:021DE000FFCF33
:101DE200EE764E3A261C12BF5F3F2F1F170F773B2E
:101DF200271D130E099692B091A0D09003C16B21BA
:101E02004B050BCCBCC4ACB49CA4FEE547C53785DE
:101E12001710303132333435363738394142434482
:101E22004546002530347800457272002566000070
:101E32000000007C02630250696E67706F6E672D4E
:101E42005365747570202E2E2E0A0D0052464D31A8
:101E5200322050696E67706F6E6720746573740DFF
:101E62000A006E6577207061636B65743A002D0D10
:0E1E72000A002E0D0A00666F6F62617200009A
:00000001FF
